{
  "contractName": "LiquidityValueCalculator",
  "abi": [
    {
      "inputs": [
        {
          "internalType": "address",
          "name": "factory_",
          "type": "address"
        }
      ],
      "stateMutability": "nonpayable",
      "type": "constructor"
    },
    {
      "inputs": [],
      "name": "factory",
      "outputs": [
        {
          "internalType": "address",
          "name": "",
          "type": "address"
        }
      ],
      "stateMutability": "view",
      "type": "function"
    },
    {
      "inputs": [
        {
          "internalType": "uint256",
          "name": "liquidity",
          "type": "uint256"
        },
        {
          "internalType": "address",
          "name": "tokenA",
          "type": "address"
        },
        {
          "internalType": "address",
          "name": "tokenB",
          "type": "address"
        }
      ],
      "name": "computeLiquidityShareValue",
      "outputs": [
        {
          "internalType": "uint256",
          "name": "tokenAAmount",
          "type": "uint256"
        },
        {
          "internalType": "uint256",
          "name": "tokenBAmount",
          "type": "uint256"
        }
      ],
      "stateMutability": "nonpayable",
      "type": "function"
    }
  ],
  "bytecode": "0x608060405234801561001057600080fd5b5060405161026e38038061026e8339818101604052602081101561003357600080fd5b8101908080519060200190929190505050806000806101000a81548173ffffffffffffffffffffffffffffffffffffffff021916908373ffffffffffffffffffffffffffffffffffffffff160217905550506101da806100946000396000f3fe608060405234801561001057600080fd5b50600436106100365760003560e01c80634ef0c6cc1461003b578063c45a0155146100c4575b600080fd5b6100a76004803603606081101561005157600080fd5b8101908080359060200190929190803573ffffffffffffffffffffffffffffffffffffffff169060200190929190803573ffffffffffffffffffffffffffffffffffffffff16906020019092919050505061010e565b604051808381526020018281526020019250505060405180910390f35b6100cc61017f565b604051808273ffffffffffffffffffffffffffffffffffffffff1673ffffffffffffffffffffffffffffffffffffffff16815260200191505060405180910390f35b6000806040517f08c379a00000000000000000000000000000000000000000000000000000000081526004018080602001828103825260048152602001807f544f444f0000000000000000000000000000000000000000000000000000000081525060200191505060405180910390fd5b6000809054906101000a900473ffffffffffffffffffffffffffffffffffffffff168156fea2646970667358221220b085162fc7e0504fac5696096c12d8abee97437ad0528894151b51672eb7976964736f6c63430006060033",
  "immutableReferences": {},
  "source": "pragma solidity ^0.6.6;\r\n\r\nimport './interfaces/ILiquidityValueCalculator.sol';\r\nimport '@uniswap/v2-periphery/contracts/libraries/UniswapV2Library.sol';\r\nimport '@uniswap/v2-core/contracts/interfaces/IUniswapV2Pair.sol';\r\n\r\ncontract LiquidityValueCalculator is ILiquidityValueCalculator {\r\n    address public factory;\r\n    constructor(address factory_) public {\r\n        factory = factory_;\r\n    }\r\n\r\n    function pairInfo(address tokenA, address tokenB) internal view returns (uint reserveA, uint reserveB, uint totalSupply) {\r\n        IUniswapV2Pair pair = IUniswapV2Pair(UniswapV2Library.pairFor(factory, tokenA, tokenB));\r\n        totalSupply = pair.totalSupply();\r\n        (uint reserves0, uint reserves1,) = pair.getReserves();\r\n        (reserveA, reserveB) = tokenA == pair.token0() ? (reserves0, reserves1) : (reserves1, reserves0);\r\n    }\r\n \r\n    function computeLiquidityShareValue(uint liquidity, address tokenA, address tokenB) external override returns (uint tokenAAmount, uint tokenBAmount) {\r\n        revert('TODO');\r\n    }\r\n}",
  "sourcePath": "C:/Users/Fabio/Github_repos/Pessoal/UniswapSmartContractIntegration/contracts/LiquidityValueCalculator.sol",
  "compiler": {
    "name": "solc",
    "version": "0.6.6+commit.6c089d02.Emscripten.clang"
  },
  "schemaVersion": "3.3.3",
  "updatedAt": "2021-01-19T01:35:26.279Z",
  "devdoc": {
    "methods": {}
  },
  "userdoc": {
    "methods": {}
  }
}